{
  "_format": "hh3-artifact-1",
  "contractName": "GachaGame",
  "sourceName": "contracts/GachaGame.sol",
  "abi": [
    {
      "inputs": [],
      "stateMutability": "nonpayable",
      "type": "constructor"
    },
    {
      "inputs": [
        {
          "internalType": "address",
          "name": "sender",
          "type": "address"
        },
        {
          "internalType": "uint256",
          "name": "tokenId",
          "type": "uint256"
        },
        {
          "internalType": "address",
          "name": "owner",
          "type": "address"
        }
      ],
      "name": "ERC721IncorrectOwner",
      "type": "error"
    },
    {
      "inputs": [
        {
          "internalType": "address",
          "name": "operator",
          "type": "address"
        },
        {
          "internalType": "uint256",
          "name": "tokenId",
          "type": "uint256"
        }
      ],
      "name": "ERC721InsufficientApproval",
      "type": "error"
    },
    {
      "inputs": [
        {
          "internalType": "address",
          "name": "approver",
          "type": "address"
        }
      ],
      "name": "ERC721InvalidApprover",
      "type": "error"
    },
    {
      "inputs": [
        {
          "internalType": "address",
          "name": "operator",
          "type": "address"
        }
      ],
      "name": "ERC721InvalidOperator",
      "type": "error"
    },
    {
      "inputs": [
        {
          "internalType": "address",
          "name": "owner",
          "type": "address"
        }
      ],
      "name": "ERC721InvalidOwner",
      "type": "error"
    },
    {
      "inputs": [
        {
          "internalType": "address",
          "name": "receiver",
          "type": "address"
        }
      ],
      "name": "ERC721InvalidReceiver",
      "type": "error"
    },
    {
      "inputs": [
        {
          "internalType": "address",
          "name": "sender",
          "type": "address"
        }
      ],
      "name": "ERC721InvalidSender",
      "type": "error"
    },
    {
      "inputs": [
        {
          "internalType": "uint256",
          "name": "tokenId",
          "type": "uint256"
        }
      ],
      "name": "ERC721NonexistentToken",
      "type": "error"
    },
    {
      "inputs": [
        {
          "internalType": "address",
          "name": "owner",
          "type": "address"
        }
      ],
      "name": "OwnableInvalidOwner",
      "type": "error"
    },
    {
      "inputs": [
        {
          "internalType": "address",
          "name": "account",
          "type": "address"
        }
      ],
      "name": "OwnableUnauthorizedAccount",
      "type": "error"
    },
    {
      "anonymous": false,
      "inputs": [
        {
          "indexed": true,
          "internalType": "address",
          "name": "owner",
          "type": "address"
        },
        {
          "indexed": true,
          "internalType": "address",
          "name": "approved",
          "type": "address"
        },
        {
          "indexed": true,
          "internalType": "uint256",
          "name": "tokenId",
          "type": "uint256"
        }
      ],
      "name": "Approval",
      "type": "event"
    },
    {
      "anonymous": false,
      "inputs": [
        {
          "indexed": true,
          "internalType": "address",
          "name": "owner",
          "type": "address"
        },
        {
          "indexed": true,
          "internalType": "address",
          "name": "operator",
          "type": "address"
        },
        {
          "indexed": false,
          "internalType": "bool",
          "name": "approved",
          "type": "bool"
        }
      ],
      "name": "ApprovalForAll",
      "type": "event"
    },
    {
      "anonymous": false,
      "inputs": [
        {
          "indexed": true,
          "internalType": "address",
          "name": "player",
          "type": "address"
        },
        {
          "indexed": false,
          "internalType": "uint256",
          "name": "tokenId",
          "type": "uint256"
        },
        {
          "indexed": false,
          "internalType": "enum GachaGame.Rarity",
          "name": "rarity",
          "type": "uint8"
        },
        {
          "indexed": false,
          "internalType": "uint256",
          "name": "power",
          "type": "uint256"
        },
        {
          "indexed": false,
          "internalType": "string",
          "name": "name",
          "type": "string"
        }
      ],
      "name": "CharacterRolled",
      "type": "event"
    },
    {
      "anonymous": false,
      "inputs": [
        {
          "indexed": true,
          "internalType": "address",
          "name": "previousOwner",
          "type": "address"
        },
        {
          "indexed": true,
          "internalType": "address",
          "name": "newOwner",
          "type": "address"
        }
      ],
      "name": "OwnershipTransferred",
      "type": "event"
    },
    {
      "anonymous": false,
      "inputs": [
        {
          "indexed": false,
          "internalType": "uint256",
          "name": "newPrice",
          "type": "uint256"
        }
      ],
      "name": "RollPriceUpdated",
      "type": "event"
    },
    {
      "anonymous": false,
      "inputs": [
        {
          "indexed": true,
          "internalType": "address",
          "name": "from",
          "type": "address"
        },
        {
          "indexed": true,
          "internalType": "address",
          "name": "to",
          "type": "address"
        },
        {
          "indexed": true,
          "internalType": "uint256",
          "name": "tokenId",
          "type": "uint256"
        }
      ],
      "name": "Transfer",
      "type": "event"
    },
    {
      "inputs": [],
      "name": "EPIC_CHANCE",
      "outputs": [
        {
          "internalType": "uint256",
          "name": "",
          "type": "uint256"
        }
      ],
      "stateMutability": "view",
      "type": "function"
    },
    {
      "inputs": [],
      "name": "LEGENDARY_CHANCE",
      "outputs": [
        {
          "internalType": "uint256",
          "name": "",
          "type": "uint256"
        }
      ],
      "stateMutability": "view",
      "type": "function"
    },
    {
      "inputs": [],
      "name": "RARE_CHANCE",
      "outputs": [
        {
          "internalType": "uint256",
          "name": "",
          "type": "uint256"
        }
      ],
      "stateMutability": "view",
      "type": "function"
    },
    {
      "inputs": [
        {
          "internalType": "address",
          "name": "to",
          "type": "address"
        },
        {
          "internalType": "uint256",
          "name": "tokenId",
          "type": "uint256"
        }
      ],
      "name": "approve",
      "outputs": [],
      "stateMutability": "nonpayable",
      "type": "function"
    },
    {
      "inputs": [
        {
          "internalType": "address",
          "name": "owner",
          "type": "address"
        }
      ],
      "name": "balanceOf",
      "outputs": [
        {
          "internalType": "uint256",
          "name": "",
          "type": "uint256"
        }
      ],
      "stateMutability": "view",
      "type": "function"
    },
    {
      "inputs": [
        {
          "internalType": "uint256",
          "name": "",
          "type": "uint256"
        }
      ],
      "name": "characters",
      "outputs": [
        {
          "internalType": "uint256",
          "name": "id",
          "type": "uint256"
        },
        {
          "internalType": "enum GachaGame.Rarity",
          "name": "rarity",
          "type": "uint8"
        },
        {
          "internalType": "uint256",
          "name": "power",
          "type": "uint256"
        },
        {
          "internalType": "string",
          "name": "name",
          "type": "string"
        },
        {
          "internalType": "uint256",
          "name": "rolledAt",
          "type": "uint256"
        }
      ],
      "stateMutability": "view",
      "type": "function"
    },
    {
      "inputs": [
        {
          "internalType": "uint256",
          "name": "tokenId",
          "type": "uint256"
        }
      ],
      "name": "getApproved",
      "outputs": [
        {
          "internalType": "address",
          "name": "",
          "type": "address"
        }
      ],
      "stateMutability": "view",
      "type": "function"
    },
    {
      "inputs": [
        {
          "internalType": "uint256",
          "name": "tokenId",
          "type": "uint256"
        }
      ],
      "name": "getCharacter",
      "outputs": [
        {
          "components": [
            {
              "internalType": "uint256",
              "name": "id",
              "type": "uint256"
            },
            {
              "internalType": "enum GachaGame.Rarity",
              "name": "rarity",
              "type": "uint8"
            },
            {
              "internalType": "uint256",
              "name": "power",
              "type": "uint256"
            },
            {
              "internalType": "string",
              "name": "name",
              "type": "string"
            },
            {
              "internalType": "uint256",
              "name": "rolledAt",
              "type": "uint256"
            }
          ],
          "internalType": "struct GachaGame.Character",
          "name": "",
          "type": "tuple"
        }
      ],
      "stateMutability": "view",
      "type": "function"
    },
    {
      "inputs": [
        {
          "internalType": "enum GachaGame.Rarity",
          "name": "rarity",
          "type": "uint8"
        }
      ],
      "name": "getRarityName",
      "outputs": [
        {
          "internalType": "string",
          "name": "",
          "type": "string"
        }
      ],
      "stateMutability": "pure",
      "type": "function"
    },
    {
      "inputs": [],
      "name": "getTotalCharacters",
      "outputs": [
        {
          "internalType": "uint256",
          "name": "",
          "type": "uint256"
        }
      ],
      "stateMutability": "view",
      "type": "function"
    },
    {
      "inputs": [
        {
          "internalType": "address",
          "name": "user",
          "type": "address"
        }
      ],
      "name": "getUserCharacters",
      "outputs": [
        {
          "internalType": "uint256[]",
          "name": "",
          "type": "uint256[]"
        }
      ],
      "stateMutability": "view",
      "type": "function"
    },
    {
      "inputs": [
        {
          "internalType": "address",
          "name": "owner",
          "type": "address"
        },
        {
          "internalType": "address",
          "name": "operator",
          "type": "address"
        }
      ],
      "name": "isApprovedForAll",
      "outputs": [
        {
          "internalType": "bool",
          "name": "",
          "type": "bool"
        }
      ],
      "stateMutability": "view",
      "type": "function"
    },
    {
      "inputs": [],
      "name": "name",
      "outputs": [
        {
          "internalType": "string",
          "name": "",
          "type": "string"
        }
      ],
      "stateMutability": "view",
      "type": "function"
    },
    {
      "inputs": [],
      "name": "owner",
      "outputs": [
        {
          "internalType": "address",
          "name": "",
          "type": "address"
        }
      ],
      "stateMutability": "view",
      "type": "function"
    },
    {
      "inputs": [
        {
          "internalType": "uint256",
          "name": "tokenId",
          "type": "uint256"
        }
      ],
      "name": "ownerOf",
      "outputs": [
        {
          "internalType": "address",
          "name": "",
          "type": "address"
        }
      ],
      "stateMutability": "view",
      "type": "function"
    },
    {
      "inputs": [],
      "name": "renounceOwnership",
      "outputs": [],
      "stateMutability": "nonpayable",
      "type": "function"
    },
    {
      "inputs": [],
      "name": "roll",
      "outputs": [
        {
          "internalType": "uint256",
          "name": "",
          "type": "uint256"
        }
      ],
      "stateMutability": "payable",
      "type": "function"
    },
    {
      "inputs": [],
      "name": "rollPrice",
      "outputs": [
        {
          "internalType": "uint256",
          "name": "",
          "type": "uint256"
        }
      ],
      "stateMutability": "view",
      "type": "function"
    },
    {
      "inputs": [
        {
          "internalType": "address",
          "name": "from",
          "type": "address"
        },
        {
          "internalType": "address",
          "name": "to",
          "type": "address"
        },
        {
          "internalType": "uint256",
          "name": "tokenId",
          "type": "uint256"
        }
      ],
      "name": "safeTransferFrom",
      "outputs": [],
      "stateMutability": "nonpayable",
      "type": "function"
    },
    {
      "inputs": [
        {
          "internalType": "address",
          "name": "from",
          "type": "address"
        },
        {
          "internalType": "address",
          "name": "to",
          "type": "address"
        },
        {
          "internalType": "uint256",
          "name": "tokenId",
          "type": "uint256"
        },
        {
          "internalType": "bytes",
          "name": "data",
          "type": "bytes"
        }
      ],
      "name": "safeTransferFrom",
      "outputs": [],
      "stateMutability": "nonpayable",
      "type": "function"
    },
    {
      "inputs": [
        {
          "internalType": "address",
          "name": "operator",
          "type": "address"
        },
        {
          "internalType": "bool",
          "name": "approved",
          "type": "bool"
        }
      ],
      "name": "setApprovalForAll",
      "outputs": [],
      "stateMutability": "nonpayable",
      "type": "function"
    },
    {
      "inputs": [
        {
          "internalType": "uint256",
          "name": "newPrice",
          "type": "uint256"
        }
      ],
      "name": "setRollPrice",
      "outputs": [],
      "stateMutability": "nonpayable",
      "type": "function"
    },
    {
      "inputs": [
        {
          "internalType": "bytes4",
          "name": "interfaceId",
          "type": "bytes4"
        }
      ],
      "name": "supportsInterface",
      "outputs": [
        {
          "internalType": "bool",
          "name": "",
          "type": "bool"
        }
      ],
      "stateMutability": "view",
      "type": "function"
    },
    {
      "inputs": [],
      "name": "symbol",
      "outputs": [
        {
          "internalType": "string",
          "name": "",
          "type": "string"
        }
      ],
      "stateMutability": "view",
      "type": "function"
    },
    {
      "inputs": [
        {
          "internalType": "uint256",
          "name": "tokenId",
          "type": "uint256"
        }
      ],
      "name": "tokenURI",
      "outputs": [
        {
          "internalType": "string",
          "name": "",
          "type": "string"
        }
      ],
      "stateMutability": "view",
      "type": "function"
    },
    {
      "inputs": [
        {
          "internalType": "address",
          "name": "from",
          "type": "address"
        },
        {
          "internalType": "address",
          "name": "to",
          "type": "address"
        },
        {
          "internalType": "uint256",
          "name": "tokenId",
          "type": "uint256"
        }
      ],
      "name": "transferFrom",
      "outputs": [],
      "stateMutability": "nonpayable",
      "type": "function"
    },
    {
      "inputs": [
        {
          "internalType": "address",
          "name": "newOwner",
          "type": "address"
        }
      ],
      "name": "transferOwnership",
      "outputs": [],
      "stateMutability": "nonpayable",
      "type": "function"
    },
    {
      "inputs": [
        {
          "internalType": "address",
          "name": "",
          "type": "address"
        },
        {
          "internalType": "uint256",
          "name": "",
          "type": "uint256"
        }
      ],
      "name": "userCharacters",
      "outputs": [
        {
          "internalType": "uint256",
          "name": "",
          "type": "uint256"
        }
      ],
      "stateMutability": "view",
      "type": "function"
    },
    {
      "inputs": [],
      "name": "withdraw",
      "outputs": [],
      "stateMutability": "nonpayable",
      "type": "function"
    }
  ],
  "bytecode": "0x6080604052662386f26fc100006008553480156200001b575f80fd5b50336040518060400160405280600e81526020016d23b0b1b430a1b430b930b1ba32b960911b81525060405180604001604052806005815260200164474143484160d81b815250815f9081620000729190620001ba565b506001620000818282620001ba565b5050506001600160a01b038116620000b257604051631e4fbdf760e01b81525f600482015260240160405180910390fd5b620000bd81620000c9565b50600160075562000282565b600680546001600160a01b038381166001600160a01b0319831681179093556040519116919082907f8be0079c531659141344cd1fd0a4f28419497f9722a3daafe3b4186f6b6457e0905f90a35050565b634e487b7160e01b5f52604160045260245ffd5b600181811c908216806200014357607f821691505b6020821081036200016257634e487b7160e01b5f52602260045260245ffd5b50919050565b601f821115620001b5575f81815260208120601f850160051c81016020861015620001905750805b601f850160051c820191505b81811015620001b1578281556001016200019c565b5050505b505050565b81516001600160401b03811115620001d657620001d66200011a565b620001ee81620001e784546200012e565b8462000168565b602080601f83116001811462000224575f84156200020c5750858301515b5f19600386901b1c1916600185901b178555620001b1565b5f85815260208120601f198616915b82811015620002545788860151825594840194600190910190840162000233565b50858210156200027257878501515f19600388901b60f8161c191681555b5050505050600190811b01905550565b6122b080620002905f395ff3fe6080604052600436106101ba575f3560e01c806375057e1d116100f2578063c87b56dd11610092578063dabb053111610062578063dabb0531146104b4578063e985e9c5146104e0578063f22a7296146104ff578063f2fde38b1461051e575f80fd5b8063c87b56dd14610464578063cd5e3c5d14610483578063ceebb2831461048b578063cf3af3a11461049f575f80fd5b806395d89b41116100cd57806395d89b41146103fd578063a22cb46514610411578063b88d4fde14610430578063c7ce831c1461044f575f80fd5b806375057e1d146103ad5780638da5cb5b146103cc5780639498624f146103e9575f80fd5b806342842e0e1161015d5780635a7bd306116101385780635a7bd306146103385780636352211e1461035b57806370a082311461037a578063715018a614610399575f80fd5b806342842e0e146102ca5780634810bc59146102e95780635687156e14610319575f80fd5b8063095ea7b311610198578063095ea7b31461024a57806323b872dd1461026b5780632f3856e51461028a5780633ccfd60b146102b6575f80fd5b806301ffc9a7146101be57806306fdde03146101f2578063081812fc14610213575b5f80fd5b3480156101c9575f80fd5b506101dd6101d8366004611b6b565b61053d565b60405190151581526020015b60405180910390f35b3480156101fd575f80fd5b5061020661058e565b6040516101e99190611bda565b34801561021e575f80fd5b5061023261022d366004611bec565b61061d565b6040516001600160a01b0390911681526020016101e9565b348015610255575f80fd5b50610269610264366004611c1e565b610644565b005b348015610276575f80fd5b50610269610285366004611c46565b610653565b348015610295575f80fd5b506102a96102a4366004611c7f565b6106e1565b6040516101e99190611c98565b3480156102c1575f80fd5b5061026961074a565b3480156102d5575f80fd5b506102696102e4366004611c46565b6107ce565b3480156102f4575f80fd5b50610308610303366004611bec565b6107ed565b6040516101e9959493929190611d0f565b348015610324575f80fd5b50610269610333366004611bec565b6108a7565b348015610343575f80fd5b5061034d6107d081565b6040519081526020016101e9565b348015610366575f80fd5b50610232610375366004611bec565b6108ea565b348015610385575f80fd5b5061034d610394366004611c7f565b6108f4565b3480156103a4575f80fd5b50610269610939565b3480156103b8575f80fd5b506102066103c7366004611d4c565b61094c565b3480156103d7575f80fd5b506006546001600160a01b0316610232565b3480156103f4575f80fd5b5061034d606481565b348015610408575f80fd5b50610206610a20565b34801561041c575f80fd5b5061026961042b366004611d6a565b610a2f565b34801561043b575f80fd5b5061026961044a366004611db7565b610a3a565b34801561045a575f80fd5b5061034d6101f481565b34801561046f575f80fd5b5061020661047e366004611bec565b610a52565b61034d610bd8565b348015610496575f80fd5b5061034d610d81565b3480156104aa575f80fd5b5061034d60085481565b3480156104bf575f80fd5b506104d36104ce366004611bec565b610d96565b6040516101e99190611e8c565b3480156104eb575f80fd5b506101dd6104fa366004611ee4565b610f25565b34801561050a575f80fd5b5061034d610519366004611c1e565b610f52565b348015610529575f80fd5b50610269610538366004611c7f565b610f7d565b5f6001600160e01b031982166380ac58cd60e01b148061056d57506001600160e01b03198216635b5e139f60e01b145b8061058857506301ffc9a760e01b6001600160e01b03198316145b92915050565b60605f805461059c90611f15565b80601f01602080910402602001604051908101604052809291908181526020018280546105c890611f15565b80156106135780601f106105ea57610100808354040283529160200191610613565b820191905f5260205f20905b8154815290600101906020018083116105f657829003601f168201915b5050505050905090565b5f61062782610fba565b505f828152600460205260409020546001600160a01b0316610588565b61064f828233610ff2565b5050565b6001600160a01b03821661068157604051633250574960e11b81525f60048201526024015b60405180910390fd5b5f61068d838333610fff565b9050836001600160a01b0316816001600160a01b0316146106db576040516364283d7b60e01b81526001600160a01b0380861660048301526024820184905282166044820152606401610678565b50505050565b6001600160a01b0381165f908152600a602090815260409182902080548351818402810184019094528084526060939283018282801561073e57602002820191905f5260205f20905b81548152602001906001019080831161072a575b50505050509050919050565b6107526110f1565b47806107975760405162461bcd60e51b81526020600482015260146024820152734e6f2066756e647320746f20776974686472617760601b6044820152606401610678565b6006546040516001600160a01b039091169082156108fc029083905f818181858888f1935050505015801561064f573d5f803e3d5ffd5b6107e883838360405180602001604052805f815250610a3a565b505050565b60096020525f90815260409020805460018201546002830154600384018054939460ff9093169391929161082090611f15565b80601f016020809104026020016040519081016040528092919081815260200182805461084c90611f15565b80156108975780601f1061086e57610100808354040283529160200191610897565b820191905f5260205f20905b81548152906001019060200180831161087a57829003601f168201915b5050505050908060040154905085565b6108af6110f1565b60088190556040518181527f4c9eb2bc3b3f4aca5fb95465757cc323245badd15966b1f8c93b5f09ff86a02d9060200160405180910390a150565b5f61058882610fba565b5f6001600160a01b03821661091e576040516322718ad960e21b81525f6004820152602401610678565b506001600160a01b03165f9081526003602052604090205490565b6109416110f1565b61094a5f61111e565b565b6060600382600381111561096257610962611cdb565b0361098c5750506040805180820190915260098152684c4547454e4441525960b81b602082015290565b60028260038111156109a0576109a0611cdb565b036109c55750506040805180820190915260048152634550494360e01b602082015290565b60018260038111156109d9576109d9611cdb565b036109fe5750506040805180820190915260048152635241524560e01b602082015290565b505060408051808201909152600681526521a7a6a6a7a760d11b602082015290565b60606001805461059c90611f15565b61064f33838361116f565b610a45848484610653565b6106db338585858561120d565b5f818152600260205260409020546060906001600160a01b0316610aaf5760405162461bcd60e51b8152602060048201526014602482015273151bdad95b88191bd95cc81b9bdd08195e1a5cdd60621b6044820152606401610678565b5f828152600960209081526040808320815160a08101909252805482526001810154919290919083019060ff166003811115610aed57610aed611cdb565b6003811115610afe57610afe611cdb565b815260200160028201548152602001600382018054610b1c90611f15565b80601f0160208091040260200160405190810160405280929190818152602001828054610b4890611f15565b8015610b935780601f10610b6a57610100808354040283529160200191610b93565b820191905f5260205f20905b815481529060010190602001808311610b7657829003601f168201915b505050505081526020016004820154815250509050610bb181611335565b604051602001610bc19190611f47565b604051602081830303815290604052915050919050565b5f600854341015610c225760405162461bcd60e51b8152602060048201526014602482015273125b9cdd59999a58da595b9d081c185e5b595b9d60621b6044820152606401610678565b600780545f9182610c3283611f9f565b919050559050610c42338261137e565b5f610c4c82611397565b90505f610c598284611418565b90505f610c6683856114de565b90505f6040518060a00160405280868152602001856003811115610c8c57610c8c611cdb565b81526020018481526020018381526020014281525090508060095f8781526020019081526020015f205f820151815f01556020820151816001015f6101000a81548160ff02191690836003811115610ce657610ce6611cdb565b02179055506040820151600282015560608201516003820190610d099082611ffc565b5060809190910151600490910155335f818152600a6020908152604080832080546001810182559084529190922001879055517fd4e0e0ad1c7635b492961b01ea5cb8174cd2cfa7598973641d19b49f7b40bfb590610d6f9088908890889088906120b8565b60405180910390a25092949350505050565b5f6001600754610d9191906120ed565b905090565b610dc66040805160a081019091525f808252602082019081526020015f8152602001606081526020015f81525090565b5f828152600260205260409020546001600160a01b0316610e295760405162461bcd60e51b815260206004820152601860248201527f43686172616374657220646f6573206e6f7420657869737400000000000000006044820152606401610678565b5f82815260096020908152604091829020825160a08101909352805483526001810154909183019060ff166003811115610e6557610e65611cdb565b6003811115610e7657610e76611cdb565b815260200160028201548152602001600382018054610e9490611f15565b80601f0160208091040260200160405190810160405280929190818152602001828054610ec090611f15565b8015610f0b5780601f10610ee257610100808354040283529160200191610f0b565b820191905f5260205f20905b815481529060010190602001808311610eee57829003601f168201915b505050505081526020016004820154815250509050919050565b6001600160a01b039182165f90815260056020908152604080832093909416825291909152205460ff1690565b600a602052815f5260405f208181548110610f6b575f80fd5b905f5260205f20015f91509150505481565b610f856110f1565b6001600160a01b038116610fae57604051631e4fbdf760e01b81525f6004820152602401610678565b610fb78161111e565b50565b5f818152600260205260408120546001600160a01b03168061058857604051637e27328960e01b815260048101849052602401610678565b6107e88383836001611741565b5f828152600260205260408120546001600160a01b039081169083161561102b5761102b818486611845565b6001600160a01b03811615611065576110465f855f80611741565b6001600160a01b0381165f90815260036020526040902080545f190190555b6001600160a01b03851615611093576001600160a01b0385165f908152600360205260409020805460010190555b5f8481526002602052604080822080546001600160a01b0319166001600160a01b0389811691821790925591518793918516917fddf252ad1be2c89b69c2b068fc378daa952ba7f163c4a11628f55a4df523b3ef91a4949350505050565b6006546001600160a01b0316331461094a5760405163118cdaa760e01b8152336004820152602401610678565b600680546001600160a01b038381166001600160a01b0319831681179093556040519116919082907f8be0079c531659141344cd1fd0a4f28419497f9722a3daafe3b4186f6b6457e0905f90a35050565b6001600160a01b0382166111a157604051630b61174360e31b81526001600160a01b0383166004820152602401610678565b6001600160a01b038381165f81815260056020908152604080832094871680845294825291829020805460ff191686151590811790915591519182527f17307eab39ab6107e8899845ad3d59bd9653f200f220920489ca2b5937696c31910160405180910390a3505050565b6001600160a01b0383163b1561132e57604051630a85bd0160e11b81526001600160a01b0384169063150b7a029061124f908890889087908790600401612100565b6020604051808303815f875af1925050508015611289575060408051601f3d908101601f1916820190925261128691810190612132565b60015b6112f0573d8080156112b6576040519150601f19603f3d011682016040523d82523d5f602084013e6112bb565b606091505b5080515f036112e857604051633250574960e11b81526001600160a01b0385166004820152602401610678565b805160208201fd5b6001600160e01b03198116630a85bd0160e11b1461132c57604051633250574960e11b81526001600160a01b0385166004820152602401610678565b505b5050505050565b60608160600151611349836020015161094c565b61135684604001516118a9565b6040516020016113689392919061214d565b6040516020818303038152906040529050919050565b61064f828260405180602001604052805f815250611939565b5f806127106113a584611950565b6113af91906121e5565b905060648110156113c35750600392915050565b6113d06101f46064612204565b8110156113e05750600292915050565b6107d06113f06101f46064612204565b6113fa9190612204565b81101561140a5750600192915050565b505f92915050565b50919050565b5f8061142d611428846001612204565b611950565b9050600384600381111561144357611443611cdb565b036114675761145360c9826121e5565b61145f90610320612204565b915050610588565b600284600381111561147b5761147b611cdb565b036114985761148c61012d826121e5565b61145f906101f4612204565b60018460038111156114ac576114ac611cdb565b036114c8576114bd61012d826121e5565b61145f9060c8612204565b6114d36097826121e5565b61145f906032612204565b6040805160c080820183526006608080840182815265536861646f7760d01b60a080870191909152908552855180870187526004808252634669726560e01b6020838101919091528088019290925287518089018952600381526249636560e81b8184015287890152875180890189526007808252662a343ab73232b960c91b8285015260608981019290925289519788018a52948701948552662bb0b93934b7b960c91b9387019390935292855286518088018852838152634d61676560e01b818301528582015286518088018852600881526720b9b9b0b9b9b4b760c11b818301528588015286518088019097529286526512db9a59da1d60d21b9286019290925282820194909452925f906115fa611428876002612204565b61160491906121e5565b90505f6004611617611428886003612204565b61162191906121e5565b60408051602081019091525f8152909150600388600381111561164657611646611cdb565b03611672575060408051808201909152600a81526902632b3b2b73230b93c960b51b60208201526116e4565b600288600381111561168657611686611cdb565b036116ad5750604080518082019091526005815264022b834b1960dd1b60208201526116e4565b60018860038111156116c1576116c1611cdb565b036116e4575060408051808201909152600581526402930b932960dd1b60208201525b808584600481106116f7576116f7612217565b602002015185846004811061170e5761170e612217565b60200201516040516020016117259392919061222b565b6040516020818303038152906040529550505050505092915050565b808061175557506001600160a01b03821615155b15611816575f61176484610fba565b90506001600160a01b038316158015906117905750826001600160a01b0316816001600160a01b031614155b80156117a357506117a18184610f25565b155b156117cc5760405163a9fbf51f60e01b81526001600160a01b0384166004820152602401610678565b81156118145783856001600160a01b0316826001600160a01b03167f8c5be1e5ebec7d5bd14f71427d1e84f3dd0314c0f7b2291e5b200ac8c7c3b92560405160405180910390a45b505b50505f90815260046020526040902080546001600160a01b0319166001600160a01b0392909216919091179055565b6118508383836119ba565b6107e8576001600160a01b03831661187e57604051637e27328960e01b815260048101829052602401610678565b60405163177e802f60e01b81526001600160a01b038316600482015260248101829052604401610678565b60605f6118b583611a1e565b60010190505f8167ffffffffffffffff8111156118d4576118d4611da3565b6040519080825280601f01601f1916602001820160405280156118fe576020820181803683370190505b5090508181016020015b5f19016f181899199a1a9b1b9c1cb0b131b232b360811b600a86061a8153600a850494508461190857509392505050565b6119438383611af5565b6107e8335f85858561120d565b5f4244338460075460405160200161199c959493929190948552602085019390935260609190911b6bffffffffffffffffffffffff191660408401526054830152607482015260940190565b60408051601f19818403018152919052805160209091012092915050565b5f6001600160a01b03831615801590611a165750826001600160a01b0316846001600160a01b031614806119f357506119f38484610f25565b80611a1657505f828152600460205260409020546001600160a01b038481169116145b949350505050565b5f8072184f03e93ff9f4daa797ed6e38ed64bf6a1f0160401b8310611a5c5772184f03e93ff9f4daa797ed6e38ed64bf6a1f0160401b830492506040015b6d04ee2d6d415b85acef81000000008310611a88576d04ee2d6d415b85acef8100000000830492506020015b662386f26fc100008310611aa657662386f26fc10000830492506010015b6305f5e1008310611abe576305f5e100830492506008015b6127108310611ad257612710830492506004015b60648310611ae4576064830492506002015b600a83106105885760010192915050565b6001600160a01b038216611b1e57604051633250574960e11b81525f6004820152602401610678565b5f611b2a83835f610fff565b90506001600160a01b038116156107e8576040516339e3563760e11b81525f6004820152602401610678565b6001600160e01b031981168114610fb7575f80fd5b5f60208284031215611b7b575f80fd5b8135611b8681611b56565b9392505050565b5f5b83811015611ba7578181015183820152602001611b8f565b50505f910152565b5f8151808452611bc6816020860160208601611b8d565b601f01601f19169290920160200192915050565b602081525f611b866020830184611baf565b5f60208284031215611bfc575f80fd5b5035919050565b80356001600160a01b0381168114611c19575f80fd5b919050565b5f8060408385031215611c2f575f80fd5b611c3883611c03565b946020939093013593505050565b5f805f60608486031215611c58575f80fd5b611c6184611c03565b9250611c6f60208501611c03565b9150604084013590509250925092565b5f60208284031215611c8f575f80fd5b611b8682611c03565b602080825282518282018190525f9190848201906040850190845b81811015611ccf57835183529284019291840191600101611cb3565b50909695505050505050565b634e487b7160e01b5f52602160045260245ffd5b60048110611d0b57634e487b7160e01b5f52602160045260245ffd5b9052565b858152611d1f6020820186611cef565b83604082015260a060608201525f611d3a60a0830185611baf565b90508260808301529695505050505050565b5f60208284031215611d5c575f80fd5b813560048110611b86575f80fd5b5f8060408385031215611d7b575f80fd5b611d8483611c03565b915060208301358015158114611d98575f80fd5b809150509250929050565b634e487b7160e01b5f52604160045260245ffd5b5f805f8060808587031215611dca575f80fd5b611dd385611c03565b9350611de160208601611c03565b925060408501359150606085013567ffffffffffffffff80821115611e04575f80fd5b818701915087601f830112611e17575f80fd5b813581811115611e2957611e29611da3565b604051601f8201601f19908116603f01168101908382118183101715611e5157611e51611da3565b816040528281528a6020848701011115611e69575f80fd5b826020860160208301375f60208483010152809550505050505092959194509250565b60208152815160208201525f6020830151611eaa6040840182611cef565b5060408301516060830152606083015160a06080840152611ece60c0840182611baf565b9050608084015160a08401528091505092915050565b5f8060408385031215611ef5575f80fd5b611efe83611c03565b9150611f0c60208401611c03565b90509250929050565b600181811c90821680611f2957607f821691505b60208210810361141257634e487b7160e01b5f52602260045260245ffd5b7f646174613a6170706c69636174696f6e2f6a736f6e3b6261736536342c00000081525f8251611f7e81601d850160208701611b8d565b91909101601d0192915050565b634e487b7160e01b5f52601160045260245ffd5b5f60018201611fb057611fb0611f8b565b5060010190565b601f8211156107e8575f81815260208120601f850160051c81016020861015611fdd5750805b601f850160051c820191505b8181101561132c57828155600101611fe9565b815167ffffffffffffffff81111561201657612016611da3565b61202a816120248454611f15565b84611fb7565b602080601f83116001811461205d575f84156120465750858301515b5f19600386901b1c1916600185901b17855561132c565b5f85815260208120601f198616915b8281101561208b5788860151825594840194600190910190840161206c565b50858210156120a857878501515f19600388901b60f8161c191681555b5050505050600190811b01905550565b8481526120c86020820185611cef565b826040820152608060608201525f6120e36080830184611baf565b9695505050505050565b8181038181111561058857610588611f8b565b6001600160a01b03858116825284166020820152604081018390526080606082018190525f906120e390830184611baf565b5f60208284031215612142575f80fd5b8151611b8681611b56565b683d913730b6b2911d1160b91b815283515f90612171816009850160208901611b8d565b6b1116113930b934ba3c911d1160a11b600991840191820152845161219d816015840160208901611b8d565b6a1116113837bbb2b9111d1160a91b6015929091019182015283516121c9816020808501908801611b8d565b61227d60f01b6020929091019182015260220195945050505050565b5f826121ff57634e487b7160e01b5f52601260045260245ffd5b500690565b8082018082111561058857610588611f8b565b634e487b7160e01b5f52603260045260245ffd5b5f845161223c818460208901611b8d565b845190830190612250818360208901611b8d565b600160fd1b9101908152835161226d816001840160208801611b8d565b016001019594505050505056fea2646970667358221220032ff808514b72ebd8931cde16a68a65dc82c782214e58751fa0aaba9daf500c64736f6c63430008140033",
  "linkReferences": {},
  "deployedLinkReferences": {},
  "immutableReferences": {},
  "inputSourceName": "project/contracts/GachaGame.sol",
  "buildInfoId": "solc-0_8_20-a24dc921c79aab3f26598343b20895ecc485d9dd"
}